:020000040000FA
:10000000780B0020C10000006D170000751700007C
:1000100000000000000000000000000000000000E0
:100020000000000000000000000000007917000040
:100030007D170000000000008117000085170000F8
:100040008D17000095170000991700009D170000FC
:10005000A1170000A5170000A9170000AD170000A8
:10006000B1170000B5170000B9170000BD17000058
:10007000C1170000DD170000F9170000FD17000090
:100080000118000005180000091800000D180000F4
:100090001118000015180000191800003918000088
:1000A0003D180000411800004518000049180000E4
:1000B0004D18000051180000551800005918000094
:1000C000064880470648004700BF00BF00BFFEE764
:1000D000FEE7FEE7FEE7FEE7FEE7FEE7F9000000C9
:1000E000E50000000348854602F09CFE00480047FA
:1000F000DB180000780B002010B5F024394884424A
:1001000001D901200EE02002000A401E3649486154
:100110000321081F00F02FF80020334988610720D1
:1001200008610020002801D000BFFEE710BD01B526
:100130002E490098086000BF2C4800680028FBD1B9
:1001400008BD01B581B00020009005E06420FFF7F4
:10015000EEFF0098401C0090019900988842F5D36A
:100160000CBD22480068002804D020480068401ECA
:100170001E490860704710B5002819DA1C4A0307A9
:100180001B0F083B9B089B00D2588307DC0EFF2304
:10019000A3409A438B071B0E8407E40EA3401A4327
:1001A000134B0407240F083CA408A4001A5118E0BC
:1001B000104A03231B02D21883089B00D2588307DE
:1001C000DC0EFF23A3409A438B071B0E8407E40E2B
:1001D000A3401A43074B032424021B198408A400DC
:1001E0001A5110BDFFFFFF0000E000E000000020FA
:1001F0001CED00E000E100E000218278002A27D019
:100200003B4A03231B02D21803789B109B00D15852
:1002100002789207D30EFF229A400B469343194669
:1002200042789207120E03789B07DB0E9A40114327
:100230002F4A03231B02D21803789B109B00D15036
:100240000278D306DB0E01229A40294B1A6007E0A0
:100250000278D306DB0E01229A40254B80331A60C8
:100260007047002905D0234A12690243214B1A61C5
:1002700004E0204A126982431E4B1A617047042829
:1002800006D11D490969042211431B4A116105E089
:100290001949096904229143174A116170470028DE
:1002A00003D10021144A91610EE0012806D11249C0
:1002B000096901221143104A116105E00E490969DB
:1002C000490849000C4A11617047002806D00A49C4
:1002D000096902221143084A116105E006490969CA
:1002E00002229143044A11617047034948617047F3
:1002F00000E100E000ED00E000E000E0012905D1B0
:10030000B74AD26A0243B64BDA6204E0B44AD26A10
:100310008243B34BDA627047012905D1B04A126BB0
:100320000243AF4B1A6304E0AD4A126B8243AC4BFD
:100330001A637047012905D1A94A526A0243A84BA2
:100340005A6204E0A64A526A8243A54B5A62704739
:10035000A34988627047A24940314860704701460E
:100360009F4A40325068931502469A4310460A024B
:1003700010439B4A40325060704710B5984800685F
:10038000032109050840040DFFF7EBFE9548E04006
:1003900010BD0146924830290AD18269120A120220
:1003A00082618269904B1A438261212202620BE0D2
:1003B000182909D18269120A1202826182698B4B63
:1003C0001A43826110220262026810231A430260FB
:1003D00042685B011A43426000BF826822231A40D0
:1003E000222AFAD14268920892004260704710B502
:1003F00001467B4830290AD12023036283691B0A06
:100400001B0283618369784C234383610BE01829C5
:1004100009D11023036283691B0A1B02836183696C
:10042000724C2343836143689B089B009A1C426083
:10043000436A0124E402A34343624368A410A34334
:10044000436000BF836802242340002BFAD10323BA
:100450001B02C3181B68012423430324240204192C
:10046000236043680124A40223434360036B4024B8
:100470002343036300BF5E4B9B68272BFBD15D4B7F
:100480009B680A2423435B4CA36000BF836810244D
:100490002340002BFAD003682401A3430360436880
:1004A00064002343436000BF836802242340022B7F
:1004B000FAD143689B089B00436010BD4848016B1C
:1004C00040221143016303210902411809680122F6
:1004D0001143032212028218116000BF4449896847
:1004E0002729FBD1C168090C09042531C160C16805
:1004F000090C0904092292041143C1600021012260
:100500008A403D4B1A6000BFC168090C0904491CB0
:10051000C1603849896808221143364A91607047A2
:100520002F48C168C907C90F002904D0C168090C48
:100530000904491CC16070472948C068042108406B
:10054000002815D02648406880088000244948606B
:100550000846C068000C0004001DC8600846C0685A
:10056000000C00040121490508431D49C86036E01C
:100570001B48C06820210840002830D01D488068F2
:10058000022108431B498860154800688915884383
:100590000821084312490860114840304068891515
:1005A00008430F49403148600D48C068000C000402
:1005B000401C0B49C86008464068012109040843F3
:1005C000074948600846C0680121090408430449F6
:1005D000C8600846C068000C00042030C86070473E
:1005E0000080084000366E0100B9050000DD020001
:1005F00000A1064000A0064000E100E0012905D16D
:10060000134A92680243124B9A6004E0104A9268BF
:1006100082430F4B9A607047012905D10C4AD2687A
:1006200002430B4BDA6004E0094AD2688243084B6C
:10063000DA607047012905D1054A52680243044B2C
:100640005A6004E0024A52688243014B5A60704784
:100650000081084010B50446FE48844204D10121BF
:100660000804FFF7E7FF1BE0FB48844204D10121A7
:100670004804FFF7DFFF13E0F848844204D101216A
:100680008804FFF7D7FF0BE0F548844204D101212D
:10069000C804FFF7CFFF03E001210805FFF7CAFFF9
:1006A00010BD002A03D003680B43036002E0036817
:1006B0008B4303607047002A06D183680B43836035
:1006C000C3688B43C3600EE0012A06D1C3680B43A5
:1006D000C36083688B43836005E083688B438360DA
:1006E000C3688B43C3607047002A03D043680B4341
:1006F000436002E043688B4343607047002A03D0A5
:1007000043690B43436102E043698B434361704794
:10071000002A03D003690B43036102E003698B43A2
:10072000036170470246D0690840002801D00120CB
:1007300070470020FCE70146C86980B27047024656
:10074000106A0840002801D0012070470020FCE713
:100750000146086A80B27047416270478162704703
:10076000002A01D0416200E0816270470162704757
:1007700030B50A46002300211C2803DD012304466E
:10078000203CE0B29C00B74D641921680F248440DE
:100790000D46A54329461446844021439C00B14D93
:1007A0006419216030BDB04A0A4382617047014636
:1007B0008869000C002800D170470120FCE7024640
:1007C00090690840002800D170470120FCE710B56F
:1007D00001218803FFF712FF10BD70B502460C46D9
:1007E000002000210023D5B2002D19D000BF0FE05A
:1007F0001546C540ED07ED0F002D07D086000F25EB
:10080000B540294386002546B5402B43451CE8B238
:100810000828EDDB934D2D6A8D431D43914E3562C3
:10082000FF252D021540002D1CD0002100230020A3
:1008300010E01546C540FF2601363540002D07D093
:1008400086000F25B540294386002546B5402B4339
:10085000451CE8B20828ECDB824D6D6A8D431D43D0
:10086000804E756270BD70B502460C4600200021B6
:100870000023D5B2002D19D000BF0FE01546C540AA
:10088000ED07ED0F002D07D086000F25B540294359
:1008900086002546B5402B43451CE8B20828EDDB11
:1008A000704DAD6A8D431D436E4EB562FF252D021E
:1008B0001540002D1CD000210023002010E015461B
:1008C000C540FF2601363540002D07D086000F2594
:1008D000B540294386002546B5402B43451CE8B268
:1008E0000828ECDB5F4DED6A8D431D435D4EF562DC
:1008F00070BD70B502460C46002000210023D5B221
:10090000002D19D000BF0FE01546C540ED07ED0FD3
:10091000002D07D086000F25B540294386002546C7
:10092000B5402B43451CE8B20828EDDB4D4D2D6B3F
:100930008D431D434B4E3563FF252D021540002D81
:100940001CD000210023002010E01546C540FF26E2
:1009500001363540002D07D086000F25B5402943CC
:1009600086002546B5402B43451CE8B20828ECDB41
:100970003C4D6D6B8D431D433A4E756370BD70B534
:1009800002460C46002000210023D5B2002D19D0CC
:1009900000BF0FE01546C540ED07ED0F002D07D055
:1009A00086000F25B540294386002546B5402B43D8
:1009B000451CE8B20828EDDB2A4DAD6B8D431D4385
:1009C000284EB563FF252D021540002D1CD00021B7
:1009D0000023002010E01546C540FF2601363540B3
:1009E000002D07D086000F25B540294386002546F7
:1009F000B5402B43451CE8B20828ECDB194DED6BE4
:100A00008D431D43174EF56370BD70B502460C460D
:100A1000002000210023D5B2002D28D000BF0FE018
:100A20001546C540ED07ED0F002D07D086000F25B8
:100A3000B540294386002546B5402B43451CE8B206
:100A40000828EDDB074D40352D688D431D43054ECD
:100A500040360BE000000B4000200B4000400B40F4
:100A600000600B40002002400000A05F3560FF25C1
:100A70002D021540002D1CD000210023002010E085
:100A80001546C540FF2601363540002D07D08600AB
:100A90000F25B540294386002546B5402B43451C0C
:100AA000E8B20828ECDB0C4D6D6C8D431D430A4EFB
:100AB000756470BD30B50146084A506C8D10012434
:100AC000AC4020435064536C88101840002800D17B
:100AD00030BD0120FCE70000002002400040024041
:100AE00010B50446F748844204D101218015FFF770
:100AF00093FD16E0F448844204D101214015FFF72C
:100B00008BFD0EE0F148844204D101210015FFF76E
:100B100083FD06E0EE48844203D10121C014FFF7B3
:100B20007BFD10BD0B88882213504B888422135004
:100B3000026803231B049A430260026801231B0618
:100B40009A43026002684B681A4302600A8982670E
:100B50007047F8B50D78AD0006464036AA190D78F5
:100B6000AD005036AF190D78AD001036AD190095B7
:100B70000D786D062B0E01259D40EC43056D25403B
:100B80000565456D25404565456D4E7A9E4035436A
:100B900045651568FF260836B543156015684E682B
:100BA000354315604D893D608E89009D2E60056D31
:100BB0000E7A9E4035430565F8BD30B503468D007D
:100BC0001C462034281904680325AD04AC43046096
:100BD00004681443046030BDFFB58E00054620351F
:100BE0007419056D4F000126BE40B54305652268A6
:100BF000436DB84D2A40099E039D35432A43226028
:100C00004E000125B5401E46AE4333464E00029DC0
:100C1000B5402B434365056D4F000126BE4035436B
:100C20000565FFBD38B505460C46207B009062780F
:100C3000217828466368FFF7CFFF21782846A2680D
:100C4000FFF7BBFF38BDF8B505460C460026012767
:100C50003F046078002801D1012600E00026012130
:100C600009046068884201D1470001E001273F0480
:100C7000207800281AD1207B009062780021284635
:100C80006368FFF7A9FF00212846A268FFF795FFD8
:100C9000207B3B463246012100902846FFF79CFF0F
:100CA00001212846A268FFF788FF19E0207B009009
:100CB0006278012128466368FFF78EFF01212846EC
:100CC000A268FFF77AFF207B3B4632460021009066
:100CD0002846FFF781FF00212846A268FFF76DFF35
:100CE000F8BD00214160491E018000214180FF21A3
:100CF0000131018170470021017041600172417230
:100D000041818181704700210170417001210904F6
:100D100041600021816001737047002904D002699D
:100D200001231A43026103E0026952085200026182
:100D3000704710B5436807242402A34343608368C7
:100D40001A091201836814460C432343836010BDC3
:100D500030B504460D4629462046FFF7EAFF606895
:100D6000072109020843606030BDF8B504460E460D
:100D700017461D46022E07D1CB033A4601212046D5
:100D80000095FFF729FF07E001231B043A460021E5
:100D900020460095FFF720FF31462046FFF7C9FFA8
:100DA00060680721090208436060F8BD70B5856876
:100DB000494E35402C460D4615431E0235432C4303
:100DC000846070BDF0B504460D4616461F463B468E
:100DD000324629462046FFF7E9FFA06801210906AF
:100DE0000843A060F0BD84231950826770470268F1
:100DF00003231B049A430260026801231B069A43E3
:100E0000026002680A4302607047FFB50C46416801
:100E1000026A456A436D072636020F46B7433946D4
:100E20000E46264331462D4E3240032636042F46C9
:100E3000B7433D46012636043243354305261F4657
:100E4000B7433B46039EB600029F3E433343416097
:100E5000026245624365FFBD026CFF2308339A437B
:100E60000A4302647047426CFF2308339A430A43E3
:100E700042647047826CFF2308339A430A438264BA
:100E80007047C26CFF2308339A430A43C264704719
:100E9000002904D0026902231A43026103E00269B7
:100EA00002239A430261704730B503468D001C4609
:100EB00040342819002A13D0046810252C430460FC
:100EC00012E0000000E0064000F00640000007408D
:100ED00000100740F0FFFCFFFFC0FEFFFFFFFC7F9C
:100EE00004681025AC43046030BD30B503468D0066
:100EF0001C4640342819002A04D0046808252C43D5
:100F0000046003E004680825AC43046030BD70B59C
:100F1000446D4E000125B540AC4323464D001446B8
:100F2000AC401C43446570BD30B503468D001C4683
:100F300040342819002A04D0046820252C4304607A
:100F400003E004682025AC43046030BD30B5036D78
:100F50004D000124AC40A3430365036D4D001446CE
:100F6000AC402343036530BD70B58D00044640346A
:100F70002B19046D4E000125B540AC4304651C6877
:100F8000FF250835AC4314431C6070BD002904D113
:100F9000026801231A43026003E00268520852000B
:100FA00002607047002904D1026802231A430260DC
:100FB00003E0026802239A4302607047002905D0CB
:100FC000026A0123DB071A43026203E0026A52004D
:100FD000520802627047002905D0426801231B06AF
:100FE0001A43426004E0426801231B069A434260B0
:100FF0007047426807231B049A430A4342607047C4
:10100000426807231B029A430A4342607047002943
:1010100004D0426801231A43426003E04268520848
:101020005200426070478022115070478822115050
:1010300070479022115070479422115070479822A7
:10104000115070479C2211507047A02211507047D8
:10105000A42211507047A82211507047AC221150A1
:101060007047026803231B029A43026002680A4326
:101070000260704701469020405870470146942016
:1010800040587047014698204058704701469C20C0
:1010900040587047014680204058704701468420E0
:1010A00040587047816770470246D06F084000285B
:1010B00001D0012070470020FCE7CA43C267BFF39C
:1010C0004F8F7047002A03D0436F0B43436702E002
:1010D000436F8B434367704710B50246D06F08409B
:1010E0000346506F08400446002B03D0002C01D06B
:1010F000012010BD0020FCE7CA43C267BFF34F8F39
:1011000070474168072212029143416070470029ED
:1011100005D0026901231B041A43026104E002693D
:1011200001231B049A4302617047002A03D0436FD6
:101130000B43436702E0436F8B43436770470000F4
:1011400010B504468948844204D101211020FFF7DC
:1011500055FA03E001214020FFF750FA10BD10B509
:1011600002460124A4024B69A34205D18B69002BDE
:1011700002D10320400215E00124A4024B69A342DE
:1011800005D18B69012B02D1052000020AE04B69D1
:10119000002B05D18B69002B02D1FF20013001E02B
:1011A000012040028C680B682343CC6823430C6900
:1011B0002343CC692343034353604C6A4B68234366
:1011C0000C6A2401234393618B6A5B085B1ED36026
:1011D00010BD0021016041608160C1600161416119
:1011E0008161C1610162416202218162704700290F
:1011F00004D0026801231A43026003E00268520827
:10120000520002607047002904D0026808231A4384
:10121000026003E0026808239A43026070470029D5
:1012200005D0826901239B021A43826104E082692E
:1012300001239B029A43826170474268120912019E
:10124000426042680A4342607047002905D0426804
:1012500001235B031A43426004E0426801235B03FD
:101260009A43426070470A461132002A04D002684D
:1012700010231A43026003E0026810239A430260BD
:101280007047016170470146086980B2704701628A
:101290007047002A03D083680B43836002E08368B1
:1012A0008B438360704710B50246002000235369CA
:1012B0001C460C40002C01D0012000E0002010BD95
:1012C00010B502460B46FF200130834203D1D0699E
:1012D0000107090F03E0D069F02420400109C8B2DA
:1012E00010BD4161704710B5FF230133994206D10B
:1012F00083694F24240123401343836105E08369FC
:101300001B4C234014012343836110BD002A03D0EA
:1013100003680B43036002E003688B43036070477C
:10132000012904D1026840231A43026003E00268E5
:1013300040239A4302607047012904D10268802348
:101340001A43026003E0026880239A4302607047F8
:101350000268084B1A400B021A4302607047026889
:101360001205120D0B031A43026070470040004043
:101370000F040000FFF0000010B5044601208007B4
:10138000844204D101218015FFF738F926E0F248A4
:10139000844204D101210015FFF730F91EE0EF4827
:1013A000844204D101218014FFF728F916E0EC48AB
:1013B000844204D101214014FFF720F90EE0E948EE
:1013C000844204D101210420FFF726F906E0E64813
:1013D000844203D101210820FFF71EF910BD70B52A
:1013E00004460D46206940094001E9880843A98860
:1013F0000843298908432061606A80088000698960
:1014000008436062FEF7B9FF0646296801F0B2FCA6
:10141000A06370BD4B21C9010160012181800021C1
:10142000C1800181418170470A884B881A438B88AB
:101430001A430263426A04239A43CB881A434262E6
:1014400070470021018041808180C1807047016028
:1014500070470146086880B27047026AFF231B028A
:101460009A430B021A430262704702469069084091
:10147000002801D0012070470020FCE70246042923
:1014800003D1506BC006C00E7047506B1F231B0268
:101490001840000AF8E70146C869C0B2704710B5A5
:1014A000002A05D0436901248C402343436104E0B2
:1014B000436900248C40A343436110BD002904D03C
:1014C000826A01231A43826203E0826A5208520050
:1014D00082627047CA1C002A04D0826A02231A431F
:1014E000826203E0826A02239A4382627047826AC0
:1014F000FF231B029A430B021A43826270474A1D64
:10150000002A04D0826A04231A43826203E0826ABA
:1015100004239A43826270478A1C002A04D0C26A5C
:1015200001231A43C26203E0C26A52085200C26237
:101530007047002904D0026940231A43026103E086
:10154000026940239A4302617047002A03D043682E
:101550000B43436002E043688B434360704701469E
:101560008868C0B27047C268C0239A430A43C26009
:101570007047C26830239A430A43C260704700290B
:1015800004D0026A80231A43026203E0026A8023C5
:101590009A4302627047026AFF231B029A430A437E
:1015A00002627047C2680A43C2607047002904D0D3
:1015B000026920231A43026103E0026920239A434F
:1015C000026170470A461132002A04D002691023D2
:1015D0001A43026103E0026910239A4302617047D3
:1015E000002905D0C268FF2301331A43C26004E01A
:1015F000C268FF2301339A43C2607047002905D0B7
:10160000C26801235B021A43C26004E0C26801237E
:101610005B029A43C2607047002904D0826A10239B
:101620001A43826203E0826A10239A4382627047FF
:10163000002904D0826A20231A43826203E0826A6E
:1016400020239A4382627047002904D04269042310
:101650001A43426103E0426904239A43426170479E
:10166000002904D0426A10231A43426203E0426A0E
:1016700010239A4342627047002904D0426A202313
:101680001A43426203E0426A20239A43426270474F
:10169000002904D0C26A02231A43C26203E0C26A6C
:1016A00002239A43C2627047002904D0C26A04230D
:1016B0001A43C26203E0C26A04239A43C2627047BB
:1016C000C26AFF231B029A430B021A43C26270478D
:1016D000012189070969FF220132914301439205E3
:1016E0001161704701218907096901225202914362
:1016F00001435205116170470121890709690122DF
:101700001203914301439204116170470120800745
:1017100000690121C9020843C90408617047002912
:1017200007D0012292075268024301239B075A60A7
:1017300006E0012292075268824301239B075A6008
:1017400070470121890788607047014601208007A2
:101750008068084080B270470010004000200040C0
:1017600000300040000004400010044010B5FEF7B7
:10177000D7FE10BD00BFFEE700BFFEE700BFFEE7DB
:1017800000BFFEE710B5FEF7ECFC10BD10B5FEF78C
:10179000D3FE10BD00BFFEE700BFFEE700BFFEE7BF
:1017A00000BFFEE700BFFEE700BFFEE700BFFEE7A9
:1017B00000BFFEE700BFFEE700BFFEE700BFFEE799
:1017C00010B501212548FFF76FFC012805D100F075
:1017D00050FB01212148FFF770FC10BD10B502211C
:1017E0001F48FFF761FC012805D100F06FFB0221C3
:1017F0001B48FFF762FC10BD00BFFEE700BFFEE71D
:1018000000BFFEE700BFFEE700BFFEE700BFFEE748
:1018100000BFFEE700BFFEE710B501211148FFF74A
:1018200024FE002807D00F48FFF713FE0446214688
:101830000C48FFF70CFE10BD00BFFEE700BFFEE73F
:1018400000BFFEE700BFFEE700BFFEE700BFFEE708
:1018500000BFFEE700BFFEE700BFFEE700E0064076
:1018600000F006400020004010B51820FEF791FD62
:10187000FEF724FEFEF740FC01214804FEF75AFD66
:1018800001218804FEF756FD0121C804FEF752FD30
:1018900001218803FEF732FD01210802FEF73CFD1D
:1018A00001214802FEF738FD01218802FEF734FDD0
:1018B0000121C802FEF730FD01211020FEF71EFDB8
:1018C00001214020FEF71AFD0121C803FEF716FD95
:1018D00001210803FEF712FD10BDFFF7C5FF00F060
:1018E00031F800F07DF800F034F900F089FC00F0E8
:1018F000D3F900F080FF01F031FA044621460BA035
:1019000001F0C4FAFF2001300C4988620DE0FF208D
:1019100001300A4988620A48FEF709FCFF200130BD
:10192000064948620648FEF702FCF0E76368697002
:10193000206964203D202564200D0A0000200B4012
:101940001027000010B5012211027948FEF7A9FE08
:101950000022FF2101317648FEF7ADFE012211027F
:101960007348FEF7CBFE0022FF2101317048FEF7DD
:10197000CFFE0122D1026F48FEF793FE0022012123
:10198000C9026C48FEF797FE0122D1026948FEF7B2
:10199000B5FE00220121C9026648FEF7B9FE012208
:1019A00020216448FEF77DFE002220216148FEF7D9
:1019B00082FE012220215F48FEF7A0FE00222021A6
:1019C0005C48FEF7A5FEFF20013059494862C1007E
:1019D0005848FEF7C1FE20215648FEF7BDFE10BD57
:1019E00010B5002210215348FEF75BFE00221021A3
:1019F0005048FEF760FE012210214E48FEF774FEAB
:101A0000002210214A48FEF74CFE002210214848CF
:101A1000FEF751FE012210214548FEF765FE002227
:101A200020214348FEF73DFE002220214048FEF7DA
:101A300042FE012220213E48FEF756FE00224021B0
:101A40003B48FEF72EFE002240213948FEF733FEC8
:101A5000012240213648FEF747FE00220121C9023B
:101A60003448FEF71EFE00220121C9023148FEF76C
:101A700022FE0122D1022F48FEF736FE012211027A
:101A80002D48FEF70EFE0022FF2101312A48FEF705
:101A900012FE012211022848FEF726FE0122102123
:101AA0002548FEF7FEFD002210212348FEF703FE25
:101AB000012210212048FEF717FE10BD10B5044684
:101AC000002C0FD1FF2101311948FEF738FE012803
:101AD00003D100021649886228E0FF200130144932
:101AE000486223E0012C10D1E1021248FEF727FEE4
:101AF000012804D1C1020F48FEF730FE16E0012193
:101B0000C9020C48FEF728FE10E0022C0ED120215D
:101B10000848FEF714FE012804D120210548FEF7ED
:101B20001DFE03E020210348FEF716FE10BD000055
:101B300000200B4000400B4000600B4008B5012125
:101B4000684681701621017003214170FEF754FB35
:101B500008BD0EB54448FFF70FFC04214020FEF7F6
:101B6000C8FE04218020FEF7C4FE01216846818062
:101B7000002141810181C180E1204002009069463D
:101B80003948FFF72CFC012211463748FFF7DDFCEE
:101B900001213548FFF724FD01213348FFF72EFDD1
:101BA000FFF7CCFF0EBD70B504460D462946204612
:101BB000FFF74DFC00BF40212046FFF756FC0028F0
:101BC000F9D070BDF8B505460C46FF200002204054
:101BD0000612E7B231462846FFF739FC00BF402124
:101BE0002846FFF742FC0028F9D039462846FFF77F
:101BF0002EFC00BF40212846FFF737FC0028F9D013
:101C0000F8BD70B506460C46002500BF615D304644
:101C1000FFF7C9FF6D1C605D0028F7D100BF4021B0
:101C20003046FFF722FC0028F9D070BD70B504469D
:101C30000D46E1B20C48FFF70AFC00BF40210A48FC
:101C4000FFF713FC0028F9D0204670BD10B50446FC
:101C500000BF01210448FFF708FC0028F9D0024822
:101C6000FFF7F7FB10BD00000020004008B5012180
:101C7000684681700C21017001214170FEF7BCFAA9
:101C800008BD08B50121684681700D21017002214F
:101C90004170FEF7B1FA08BD0EB52048FEF720FFEF
:101CA000002001900321684641801D490180FF21E9
:101CB0000131018169461948FEF734FFFFF7D6FF6D
:101CC00001211648FFF7F9F9012211461348FFF7E1
:101CD000F9F901211148FFF720F81248FEF700FF3B
:101CE000002001900321684641800F490180FF21B7
:101CF0000131018169460B48FEF714FFFFF7C1FF70
:101D000002210848FFF7D9F9012202210548FFF70F
:101D1000D9F901210348FFF700F80EBD00E00640A5
:101D2000DB05000000F006405FEA000010B5044645
:101D3000012C04D11021AD48FEF7F4FC10BD032C9A
:101D400004D14021A948FEF7EDFCF7E7002C05D1AE
:101D50000121C902A648FEF7E5FCEFE7042C04D1F7
:101D60001021A348FEF7DEFCE8E7022C04D1202175
:101D70009E48FEF7D7FCE1E70020DFE770B50025BD
:101D8000ED43002407E0681C002803D1214699A0F8
:101D900001F07CF8641C052CF5DB002070BD10B54B
:101DA00099A001F073F80521C9019B4800F0FFFFDD
:101DB00005219A4800F0FBFF0521994800F0F7FF44
:101DC0000521984800F0F3FF0521974800F0EFFF48
:101DD0000521964800F0EBFFFFF7D0FF002401E05B
:101DE000601CC4B2062CFBDB91A001F04FF810BDC3
:101DF000C201894BD218894B1B5CD154874A125CB3
:101E0000521C864B1A541A46125C802A01DB0022AF
:101E10001A54844A125C521C824B1A547047014671
:101E2000CA017D4BD2187E4B5B5CD05C7C4A525C15
:101E3000521C7B4B5A541A46525C802A01DB00220A
:101E40005A54784A525C521E764B5A547047014697
:101E50007448405C002801D1012070470020FCE755
:101E600001467048405C802801D101207047002065
:101E7000FCE770B5002426E02046FFF757FF054633
:101E80000120A84305466848005D40002843664994
:101E900008556648005D401C644908550846005DC9
:101EA00008280ED12046FFF7DBFF012809D05E4845
:101EB000015D2046FFF79CFF00205B4908555B4908
:101EC0000855601CC4B2052CD6DB70BDFEB50024DD
:101ED0004BE043E02046FFF7A2FF064600273BE029
:101EE0000720C11B30460841C007C00F01902046A3
:101EF000019900F0E3F80090009800282AD106200C
:101F000060435049401880880005000D002821D00A
:101F100006206043401880884B49088008460588A1
:101F20002D052D0D2003284385B26100474A5554E5
:101F300029126000401C11541420454908700620E5
:101F40006043404940180079424908550846005D01
:101F500041490855781CC7B2082FC1DB2046FFF75E
:101F600076FF0128B6D1601CC4B2052CB1DB0A2271
:101F70003649B02000F000FD0A21344800F017FF78
:101F8000FEBD0005000D1303034398B20870C3B2F1
:101F90001B124B70704701462E4A505C00222D4B9D
:101FA0005A547047284908782949097800290ADDD8
:101FB00027490978491E264A1170114609780029D7
:101FC00001D1214A118070470146234A505C00220A
:101FD000214B5A547047204A11541B4A11801D4A04
:101FE000115410221A4B1A707047000000200B4049
:101FF00000400B40697220696F206E6F74206F6B18
:1020000020693D25640D0A0069725F72785F696E10
:1020100069740D0A00000000C800002011000020B3
:10202000160000201B0000200400002009000020F2
:1020300069725F72785F696E6974206F6B21210D20
:102040000A000000520300200E0000204803002078
:102050001000002020000020250000200021017039
:102060004170704701210170704702210170002109
:102070004170704703210170002181707047062173
:1020800001707047042101700021817070470521A3
:10209000017070470721017000214170704700B541
:1020A0000246062A01DB544800BD0620504353492E
:1020B00043181846FFF7D2FF0020F5E770B5054634
:1020C0000C460026F643062D01DB304670BD062087
:1020D00068434A4942185078401C507010780300F9
:1020E00000F0E4FE0805121A214B6A477785002CA0
:1020F00003D01046FFF7B2FF05E050780E2802DB50
:102100001046FFF7AFFF73E0002C04D00020D07022
:102110001046FFF7AAFF6BE05078032802DB104659
:10212000FFF7A8FF64E0002C02D09078401C90706C
:10213000507807281CDB90884004000C9080907831
:10214000002804D0012803D0022809D104E000BFF0
:102150001046FFF794FF0AE01046FFF77FFF06E006
:102160009088401C90801046FFF789FF00BF00BF99
:102170003EE01046FFF786FF3AE0002C13D190783E
:10218000401C90709078022815DBD078401CD070ED
:10219000D078102803DB1046FFF77CFF0BE01046D9
:1021A000FFF775FF07E00020907050780E2802DBE3
:1021B0001046FFF753FF1BE0002C03D01046FFF73B
:1021C00054FF05E05078122802DB1046FFF746FF67
:1021D0000EE0002C03D01046FFF740FF06E05078D9
:1021E000082803DB1046FFF73DFF002600E000BF94
:1021F00000BF30466AE70000FFFF000052030020E6
:1022000000B58BB0FE48FEF79BFF00221021FD4871
:10221000FEF751FA03214020FEF7B1FB0321802095
:10222000FEF7ADFB03212020FEF7A9FB6846FEF771
:10223000D0FF02200A90082002900020069005900E
:1022400001900790012080030090002003900490EB
:102250006946EB48FEF783FF0121E948FEF7D3FF0B
:102260001021C943E648FEF7FEFF0121E448FEF7CE
:10227000BEFF01220221E248FFF70BF801220421F0
:10228000DF48FFF706F8FF200130DE4948620BB057
:1022900000BD10B5044600BF0221D948FFF703F87E
:1022A0000028F9D02146D648FEF7EBFF00BF0421F5
:1022B000D348FEF7F8FF0028F9D0D148FEF7E3FF36
:1022C000C0B210BD10B5FF20FFF7E3FF10BD10B581
:1022D000FF200130CB4988620620FFF7DAFFFF209C
:1022E0000130C849486210BD10B50024FF200130FC
:1022F000C44988620520FFF7CCFF00BFFF20FFF72D
:10230000C8FF0446E007C00F0028F7D1FF200130C6
:10231000BC49486210BD10B5FF200130B949886240
:10232000B920FFF7B6FFFF200130B649486210BD63
:1023300010B5FF200130B3498862AB20FFF7A9FF39
:10234000FF200130AF49486210BD10B50446FFF7C9
:10235000BEFFFFF7C9FFFF200130AA498862202095
:10236000FFF797FFFF2109042140080CFFF791FFB9
:10237000FF2109022140080AFFF78BFFE0B2FFF7B7
:1023800088FFFF2001309F494862FFF7ADFF10BD75
:1023900010B5FFF79CFFFF2001309A498862C720E3
:1023A000FFF777FFFF20013096494862FFF79CFF57
:1023B00010BD70B505460C461646FFF788FFFF2096
:1023C0000130904988620220FFF763FFFF21090472
:1023D0002140080CFFF75DFFFF2109022140080A98
:1023E000FFF757FFE0B2FFF754FFFF2001308642AE
:1023F00003DD064684A000F049FD03E02878FFF7DE
:1024000048FF6D1C3046711E8EB20028F6D1FF20A9
:1024100001307C494862FFF767FF70BDF0B585B0B9
:1024200007460E46144600200390029001900025B6
:102430000090F0B20190FF2101310198081AC5B255
:102440002046E117090E09180904090E0391E11746
:10245000090E091809120902611AC9B202910198FC
:1024600000281FD10398002805D12246314638465E
:10247000FFF79FFF64E009E0FF2201323146384652
:10248000FFF797FFFF360136FF3701370398411EEC
:10249000C9B203910028EFD131463846029AFFF7BE
:1024A00088FF4DE00398002819D10298A84210DD5A
:1024B0000298401BC0B200902A4631463846FFF7CA
:1024C00078FF76197F1931463846009AFFF771FF79
:1024D00036E0224631463846FFF76BFF30E0601B9E
:1024E00084B22046E117090E09180904090E039168
:1024F000E117090E091809120902611AC9B20291FD
:102500002A4631463846FFF754FF76197F1909E00D
:10251000FF22013231463846FFF74BFFFF360136C6
:10252000FF3701370398411EC9B203910028EFD14C
:102530000298002804D031463846029AFFF739FF46
:1025400005B0F0BD70B505460C461646FF200130BB
:102550002C4988620320FFF79CFEFF2109042140DB
:10256000080CFFF796FEFF2109022140080AFFF739
:1025700090FEE0B2FFF78DFE04E0FF20FFF789FE3A
:1025800028706D1C3046711E8EB20028F5D1FF20D8
:1025900001301C49486270BDF8B5002400250026B2
:1025A0000027FF200130174988629F20FFF771FE46
:1025B000FF20FFF76EFE0546FF20FFF76AFE064686
:1025C000FF20FFF766FE0746FF2001300D494862F5
:1025D000280431020843384304462046F8BD10B5AC
:1025E0000024FF20013007498862AB20FFF751FE2D
:1025F000FF20FFF74EFEFF20FFF74BFEFF2013E00A
:102600000040004000600B405350495F464C41532E
:10261000485F50616765577269746520746F6F20F9
:102620006C61726765210000FFF733FEFF20FFF742
:1026300030FE0446FF2001300E494862204610BD9E
:1026400010B50446FF2001300A4988620320FFF7D5
:1026500020FEFF2109042140080CFFF71AFEFF218C
:1026600009022140080AFFF714FEE0B2FFF711FE4D
:1026700010BD000000600B4070B504462046FFF717
:1026800008FE0546284670BD70B505460C46FF207D
:102690000130B14988622846FFF7EEFFAF49087064
:1026A0002046FFF7E9FFFF200130AB49486270BDCB
:1026B00070B50446FF200130A74988622046FFF725
:1026C000DBFFA64908700020FFF7D6FF0546FF2074
:1026D0000130A1494862284670BDF8B507460D464D
:1026E0001646FF2001309C4988623846FFF7C4FF38
:1026F000002405E00020FFF7BFFF2855601CC4B28E
:10270000B442F7DBFF20013093494862F8BDF8B5C9
:1027100007460C461546FF2001308F49886238462F
:10272000FFF7AAFF8D490870002605E02078641C99
:10273000FFF7A2FF701CC6B2AE42F7DBFF200130EC
:1027400085494862F8BD10B50021E220FFF79CFFE3
:102750000720FFF7ADFF044621462720FFF794FF2F
:1027600010207D4988620020FFF7A2FF0446012067
:10277000044321462020FFF787FF10207649486256
:1027800010BD10B50021E120FFF77EFF1020724937
:1027900088620020FFF78CFF0446FE20044021469B
:1027A0002020FFF771FF10206B49486210BD70B503
:1027B00004460720FFF77CFF054669490870802022
:1027C0000540002D01D0002C03D0002D05D1002C98
:1027D00003D053215020FFF757FF70BD10B50446BA
:1027E00021462520FFF750FF10BD10B504462046B6
:1027F000FDF7A7FC10BD38B56420FFF7F6FF0020F9
:10280000FFF7D5FF14240FE06200564BD218517821
:1028100062009A5C20231A431046FFF735FF002C14
:1028200000D103E0601EC4B2002CEDDA00BF052227
:102830004D492A20FFF76BFF05224C492B20FFF75B
:1028400066FF052248493020FFF761FF1D20FFF792
:102850002FFF0446002C03D173215020FFF714FFF3
:1028600016240CE062003F4BD218517862009A5C4B
:1028700020231A431046FFF707FF601EC4B2152C31
:10288000F0DA0120FFF793FF002416E0002508E0AE
:10289000A00037490858E900C84069464855681CF7
:1028A000C5B2042DF4DB211D20221143C8B204223D
:1028B0006946FFF72CFF601CC4B2012CE6DD022440
:1028C00019E000250AE0A000294908580321491B06
:1028D000C900C84069464855681CC5B2042DF2DBE2
:1028E00021460A3120221143C8B204226946FFF76B
:1028F0000EFF601CC4B2032CE3DD0B221D492E2009
:10290000FFF705FF002507E019480068E900C84007
:1029100069464855681CC5B2042DF5DB6846017848
:102920000620014368460170042269462420FFF70F
:10293000EEFE68460078F9210840694608700422D6
:102940002420FFF7E4FE0A20FFF74FFF0020FFF7E7
:102950002EFFFFF716FF38BD00600B402C00002053
:10296000C30000208B000020B9000020BE00002022
:102970007000002080000020F8B504460D46164681
:102980001720FFF795FE074620203840002804D185
:10299000324629462046FFF7BAFEF8BDF0B589B0A9
:1029A0000720FFF785FE074600BF6020FFF780FE87
:1029B0000446202C13DC224601A96120FFF78DFE7E
:1029C00010A000F063FA002606E001A8815D10A0C7
:1029D00000F05CFA701CC6B2A642F6DB03E00021F0
:1029E000E220FFF751FE1720FFF762FE0546E807D9
:1029F000C00F0028D9D039462720FFF745FE09B07F
:102A0000F0BD00000D0A5061636B65743A00000070
:102A100025783B0070B504460D460120FFF7C7FE40
:102A2000042229462046FFF772FE0020FFF7BFFE72
:102A300070BD70B504460D460120FFF7B8FE0422B4
:102A400029462046FFF749FE0020FFF7B0FE70BD83
:102A500038B50546FFF795FE002407E0C348006837
:102A6000E100C84069460855601CC4B2042CF5DB7F
:102A7000002D38D06846C07802210840002806D0D2
:102A80006946C878FD2108406946C87005E0694676
:102A9000C878022108436946C8706846C078082192
:102AA0000840002806D06946C878F72108406946E2
:102AB000C87005E06946C878082108436946C870AF
:102AC0006846C07820210840002806D06946C878AA
:102AD000DF2108406946C87005E06946C8782021B2
:102AE00008436946C87069462420FFF793FF38BD44
:102AF0007CB506460C4615460221684601719521B3
:102B0000C170E5218170DC2141700E210170052228
:102B100069462A20FFF7FBFDFFF715FE69460C20EA
:102B2000FFF787FF6846017820200143684601705F
:102B300069462C20FFF76EFF3046FFF756FE6946C8
:102B40000C20FFF776FF6846017840200143684675
:102B5000017069462C20FFF75DFF69460020FFF7F2
:102B600068FF6846C07820602068000220606846E0
:102B70008078216801432160206800022060684657
:102B80004078216801432160206800022060684687
:102B9000007821680143216069460120FFF749FF61
:102BA0006846C078286028680002286068468078F7
:102BB0002968014329602868000228606846407837
:102BC0002968014329602868000228606846007867
:102BD00029680143296069460C20FFF72AFF6846EF
:102BE0000178DF2001406846017069462C20FFF71C
:102BF00011FF69460C20FFF71CFF68460078BF21D3
:102C00000840694608702C20FFF704FF0522584948
:102C10002A20FFF77CFD7CBD38B5002407E053482F
:102C20000068E100C84069460855601CC4B2042C25
:102C3000F5DB69464878EF21084069464870242052
:102C4000FFF7E8FE38BD38B50546002407E04748E1
:102C50000068E100C84069460855601CC4B2042CF5
:102C6000F5DB002D06D069464878202108436946E7
:102C7000487005E069464878DF2108406946487099
:102C800069462420FFF7C6FE38BD38B5002407E0AA
:102C900036484068E100C84069460855601CC4B227
:102CA000042CF5DB694648780421084369464870DE
:102CB0002520FFF7AFFE38BD38B50446002C26D0DE
:102CC0000C21684601704B21417000218170C17058
:102CD00069462120FFF79EFEA02168460170FC2175
:102CE00041708C2181700221C17069462220FFF75A
:102CF00091FE10216846017012214170732181708C
:102D00000021C17069462C20FFF784FE25E0C02118
:102D1000684601704B21417000218170C170694685
:102D20002120FFF777FED02168460170FC21417019
:102D30008C2181700221C17069462220FFF76AFE52
:102D400000216846017012214170732181700021B9
:102D5000C17069462C20FFF75DFE38BD08B5694695
:102D60000820FFF766FE6846007808BD7000002066
:102D7000B900002030B50B46014600202022012476
:102D800009E00D46D5409D4205D31D469540491B9F
:102D90002546954040191546521E002DF1DC30BDE8
:102DA000D2B201E00270401C491EFBD270470022E3
:102DB000F6E710B513460A4604461946FFF7F0FF3A
:102DC000204610BDF0B51FB40646002082B005466F
:102DD0004024019100901BE0019922460F463046A5
:102DE00000F042F8049A059B801A994110D31046CE
:102DF0001946224600F028F8361A8F4101972246DC
:102E000001200021009F00F01FF838184D4100906C
:102E10002046641E0028DFDC019B009829463246CC
:102E200007B0F0BD064C0125064E05E0E36807CC6F
:102E30002B430C3C98471034B442F7D3FDF756F9B6
:102E4000C4310000E431000010B5202A04DB014643
:102E5000203A9140002010BD914020239C1A034647
:102E6000E3401943904010BD10B5202A04DB08460A
:102E7000203AD040002110BD0B46D340D040202442
:102E8000A21A91400843194610BD00000FB410B5B6
:102E900003A9044B044A029800F026F810BC08BCB1
:102EA00004B018472D1C0000C400002030B4744644
:102EB000641E2578641CAB4204D3635D5B00E31899
:102EC00030BC18471D46F8E702E008C8121F08C1C9
:102ED000002AFAD170477047002001E001C1121F9B
:102EE000002AFBD170470000FFB58FB00F460446A3
:102EF000002606E025280AD0129A11999047641CF2
:102F0000761C20780028F5D1304613B0F0BD00259E
:102F10000121A14A009500E00543641C237808467E
:102F2000203B98401042F7D120782E2815D104205C
:102F300005436078641C2A280AD101CF641C0090E4
:102F40000BE000990A22514330394018641C00906C
:102F50002078014630390929F3D920786C280ED021
:102F600004DC4C2813D06A2812D104E074280ED057
:102F70007A280DD10BE001204005054307E001212F
:102F8000090562780D43824201D16D18641C641CEE
:102F90002078864669284AD008DC0028B4D0582812
:102FA0006DD0632810D0642808D140E070286BD021
:102FB000732812D0752860D0782860D0129A704695
:102FC00011999047761CE5E0387869460872002030
:102FD000487202A80190012003E0386801900020A7
:102FE000C0433F1D69070CD5002500E06D1C00990A
:102FF0008D420FDA8542F9DB0199495D0029F5D14F
:1030000008E0002500E06D1C8542FCDB0199495D6C
:103010000029F8D1761907E0019801990078491C38
:103020000191129A119990476D1EF5D2B2E00A20D3
:10303000029000216802400F039102280CD001CFBA
:10304000C117844600290DDA624608465242002123
:10305000814194462D2008E0FF1DFF08FF0003CFAB
:103060008446EFE7280504D52B206A46107401201A
:103070003CE0E8073AD02020F7E70A2000E01020E3
:1030800000210391029007E010200290002104200B
:1030900005430820039100906802400F022810D0D9
:1030A00001CF0021844600200D9028071FD57046CF
:1030B00070280CD0029A1020039B42401A430CD077
:1030C00015E0FF1DFF08FF0003CF8446EBE740201B
:1030D0006A46107401200D900CE06046084306D04B
:1030E00030206A4610747046507402200D9070466D
:1030F000582804D029A001900DA80E900DE02CA016
:10310000F9E76046039B029AFFF75CFE019B844649
:103110009B5C0E9A521E0E92137060460843F0D1CB
:103120000E9805A9081A20300190680701D500986B
:1031300001E0012000900199884203DD01460198D9
:10314000081A00E000200025009006E004A8129A6A
:10315000405D119990476D1C761C0D988542F5DBFA
:1031600004E0129A302011999047761C0099481E6D
:1031700000900029F5DC08E00E980E990078491CB3
:103180000E91129A11999047761C0199481E019050
:103190000029F1DC641CB4E6092801003031323327
:1031A0003435363738396162636465660000000083
:1031B000303132333435363738394142434445466D
:1031C00000000000E431000000000020C800000002
:1031D000C82E0000AC320000C8000020B00A000079
:1031E000D82E0000000000000000000000000000D9
:1031F00000000000000000000000000000000000CF
:1032000000000000000000000000000000000000BE
:103210000000000062090000650900006D0900005F
:103220006F090000710900007409000077090000AF
:103230007C09000080090000830900008609000065
:10324000880900008A0900008E0900009909000021
:103250009B090000F996821B24060FA6007312003A
:103260000080B436412008048120CFF7FEFFFF0024
:103270000F013F023F030304FF0517060F0707086E
:103280000009000CC30DC40EC50FC6112012201377
:103290002014201520162017001C3F1D0715592348
:0C32A000C629105624CD78000000000064
:04000005000000E512
:00000001FF
